{
  "contractName": "AITUToken",
  "abi": [
    {
      "inputs": [],
      "stateMutability": "nonpayable",
      "type": "constructor"
    },
    {
      "inputs": [
        {
          "internalType": "address",
          "name": "spender",
          "type": "address"
        },
        {
          "internalType": "uint256",
          "name": "allowance",
          "type": "uint256"
        },
        {
          "internalType": "uint256",
          "name": "needed",
          "type": "uint256"
        }
      ],
      "name": "ERC20InsufficientAllowance",
      "type": "error"
    },
    {
      "inputs": [
        {
          "internalType": "address",
          "name": "sender",
          "type": "address"
        },
        {
          "internalType": "uint256",
          "name": "balance",
          "type": "uint256"
        },
        {
          "internalType": "uint256",
          "name": "needed",
          "type": "uint256"
        }
      ],
      "name": "ERC20InsufficientBalance",
      "type": "error"
    },
    {
      "inputs": [
        {
          "internalType": "address",
          "name": "approver",
          "type": "address"
        }
      ],
      "name": "ERC20InvalidApprover",
      "type": "error"
    },
    {
      "inputs": [
        {
          "internalType": "address",
          "name": "receiver",
          "type": "address"
        }
      ],
      "name": "ERC20InvalidReceiver",
      "type": "error"
    },
    {
      "inputs": [
        {
          "internalType": "address",
          "name": "sender",
          "type": "address"
        }
      ],
      "name": "ERC20InvalidSender",
      "type": "error"
    },
    {
      "inputs": [
        {
          "internalType": "address",
          "name": "spender",
          "type": "address"
        }
      ],
      "name": "ERC20InvalidSpender",
      "type": "error"
    },
    {
      "anonymous": false,
      "inputs": [
        {
          "indexed": true,
          "internalType": "address",
          "name": "owner",
          "type": "address"
        },
        {
          "indexed": true,
          "internalType": "address",
          "name": "spender",
          "type": "address"
        },
        {
          "indexed": false,
          "internalType": "uint256",
          "name": "value",
          "type": "uint256"
        }
      ],
      "name": "Approval",
      "type": "event"
    },
    {
      "anonymous": false,
      "inputs": [
        {
          "indexed": true,
          "internalType": "address",
          "name": "from",
          "type": "address"
        },
        {
          "indexed": true,
          "internalType": "address",
          "name": "to",
          "type": "address"
        },
        {
          "indexed": false,
          "internalType": "uint256",
          "name": "value",
          "type": "uint256"
        }
      ],
      "name": "Transfer",
      "type": "event"
    },
    {
      "inputs": [
        {
          "internalType": "address",
          "name": "owner",
          "type": "address"
        },
        {
          "internalType": "address",
          "name": "spender",
          "type": "address"
        }
      ],
      "name": "allowance",
      "outputs": [
        {
          "internalType": "uint256",
          "name": "",
          "type": "uint256"
        }
      ],
      "stateMutability": "view",
      "type": "function"
    },
    {
      "inputs": [
        {
          "internalType": "address",
          "name": "spender",
          "type": "address"
        },
        {
          "internalType": "uint256",
          "name": "value",
          "type": "uint256"
        }
      ],
      "name": "approve",
      "outputs": [
        {
          "internalType": "bool",
          "name": "",
          "type": "bool"
        }
      ],
      "stateMutability": "nonpayable",
      "type": "function"
    },
    {
      "inputs": [
        {
          "internalType": "address",
          "name": "account",
          "type": "address"
        }
      ],
      "name": "balanceOf",
      "outputs": [
        {
          "internalType": "uint256",
          "name": "",
          "type": "uint256"
        }
      ],
      "stateMutability": "view",
      "type": "function"
    },
    {
      "inputs": [],
      "name": "decimals",
      "outputs": [
        {
          "internalType": "uint8",
          "name": "",
          "type": "uint8"
        }
      ],
      "stateMutability": "view",
      "type": "function"
    },
    {
      "inputs": [],
      "name": "name",
      "outputs": [
        {
          "internalType": "string",
          "name": "",
          "type": "string"
        }
      ],
      "stateMutability": "view",
      "type": "function"
    },
    {
      "inputs": [],
      "name": "symbol",
      "outputs": [
        {
          "internalType": "string",
          "name": "",
          "type": "string"
        }
      ],
      "stateMutability": "view",
      "type": "function"
    },
    {
      "inputs": [],
      "name": "totalSupply",
      "outputs": [
        {
          "internalType": "uint256",
          "name": "",
          "type": "uint256"
        }
      ],
      "stateMutability": "view",
      "type": "function"
    },
    {
      "inputs": [
        {
          "internalType": "uint256",
          "name": "",
          "type": "uint256"
        }
      ],
      "name": "transactions",
      "outputs": [
        {
          "internalType": "address",
          "name": "sender",
          "type": "address"
        },
        {
          "internalType": "address",
          "name": "receiver",
          "type": "address"
        },
        {
          "internalType": "uint256",
          "name": "amount",
          "type": "uint256"
        },
        {
          "internalType": "uint256",
          "name": "timestamp",
          "type": "uint256"
        }
      ],
      "stateMutability": "view",
      "type": "function"
    },
    {
      "inputs": [
        {
          "internalType": "address",
          "name": "to",
          "type": "address"
        },
        {
          "internalType": "uint256",
          "name": "amount",
          "type": "uint256"
        }
      ],
      "name": "transfer",
      "outputs": [
        {
          "internalType": "bool",
          "name": "",
          "type": "bool"
        }
      ],
      "stateMutability": "nonpayable",
      "type": "function"
    },
    {
      "inputs": [
        {
          "internalType": "address",
          "name": "from",
          "type": "address"
        },
        {
          "internalType": "address",
          "name": "to",
          "type": "address"
        },
        {
          "internalType": "uint256",
          "name": "amount",
          "type": "uint256"
        }
      ],
      "name": "transferFrom",
      "outputs": [
        {
          "internalType": "bool",
          "name": "",
          "type": "bool"
        }
      ],
      "stateMutability": "nonpayable",
      "type": "function"
    },
    {
      "inputs": [],
      "name": "getLatestTransactionTimestamp",
      "outputs": [
        {
          "internalType": "uint256",
          "name": "",
          "type": "uint256"
        }
      ],
      "stateMutability": "view",
      "type": "function"
    },
    {
      "inputs": [],
      "name": "getLatestTransactionSender",
      "outputs": [
        {
          "internalType": "address",
          "name": "",
          "type": "address"
        }
      ],
      "stateMutability": "view",
      "type": "function"
    },
    {
      "inputs": [],
      "name": "getLatestTransactionReceiver",
      "outputs": [
        {
          "internalType": "address",
          "name": "",
          "type": "address"
        }
      ],
      "stateMutability": "view",
      "type": "function"
    }
  ],
  "bytecode": "0x608060405234801562000010575f80fd5b506040518060400160405280601081526020017f41495455546f6b656e5f534532333239000000000000000000000000000000008152506040518060400160405280600481526020017f414954550000000000000000000000000000000000000000000000000000000081525081600390816200008e919062000601565b508060049081620000a0919062000601565b505050620000e133620000b8620000e760201b60201c565b600a620000c691906200086e565b6107d0620000d59190620008be565b620000ef60201b60201c565b62000a07565b5f6012905090565b5f73ffffffffffffffffffffffffffffffffffffffff168273ffffffffffffffffffffffffffffffffffffffff160362000162575f6040517fec442f050000000000000000000000000000000000000000000000000000000081526004016200015991906200094b565b60405180910390fd5b620001755f83836200017960201b60201c565b5050565b5f73ffffffffffffffffffffffffffffffffffffffff168373ffffffffffffffffffffffffffffffffffffffff1603620001cd578060025f828254620001c0919062000966565b925050819055506200029e565b5f805f8573ffffffffffffffffffffffffffffffffffffffff1673ffffffffffffffffffffffffffffffffffffffff1681526020019081526020015f205490508181101562000259578381836040517fe450d38c0000000000000000000000000000000000000000000000000000000081526004016200025093929190620009b1565b60405180910390fd5b8181035f808673ffffffffffffffffffffffffffffffffffffffff1673ffffffffffffffffffffffffffffffffffffffff1681526020019081526020015f2081905550505b5f73ffffffffffffffffffffffffffffffffffffffff168273ffffffffffffffffffffffffffffffffffffffff1603620002e7578060025f828254039250508190555062000331565b805f808473ffffffffffffffffffffffffffffffffffffffff1673ffffffffffffffffffffffffffffffffffffffff1681526020019081526020015f205f82825401925050819055505b8173ffffffffffffffffffffffffffffffffffffffff168373ffffffffffffffffffffffffffffffffffffffff167fddf252ad1be2c89b69c2b068fc378daa952ba7f163c4a11628f55a4df523b3ef83604051620003909190620009ec565b60405180910390a3505050565b5f81519050919050565b7f4e487b71000000000000000000000000000000000000000000000000000000005f52604160045260245ffd5b7f4e487b71000000000000000000000000000000000000000000000000000000005f52602260045260245ffd5b5f60028204905060018216806200041957607f821691505b6020821081036200042f576200042e620003d4565b5b50919050565b5f819050815f5260205f209050919050565b5f6020601f8301049050919050565b5f82821b905092915050565b5f60088302620004937fffffffffffffffffffffffffffffffffffffffffffffffffffffffffffffffff8262000456565b6200049f868362000456565b95508019841693508086168417925050509392505050565b5f819050919050565b5f819050919050565b5f620004e9620004e3620004dd84620004b7565b620004c0565b620004b7565b9050919050565b5f819050919050565b6200050483620004c9565b6200051c6200051382620004f0565b84845462000462565b825550505050565b5f90565b6200053262000524565b6200053f818484620004f9565b505050565b5b8181101562000566576200055a5f8262000528565b60018101905062000545565b5050565b601f821115620005b5576200057f8162000435565b6200058a8462000447565b810160208510156200059a578190505b620005b2620005a98562000447565b83018262000544565b50505b505050565b5f82821c905092915050565b5f620005d75f1984600802620005ba565b1980831691505092915050565b5f620005f18383620005c6565b9150826002028217905092915050565b6200060c826200039d565b67ffffffffffffffff811115620006285762000627620003a7565b5b62000634825462000401565b620006418282856200056a565b5f60209050601f83116001811462000677575f841562000662578287015190505b6200066e8582620005e4565b865550620006dd565b601f198416620006878662000435565b5f5b82811015620006b05784890151825560018201915060208501945060208101905062000689565b86831015620006d05784890151620006cc601f891682620005c6565b8355505b6001600288020188555050505b505050505050565b7f4e487b71000000000000000000000000000000000000000000000000000000005f52601160045260245ffd5b5f8160011c9050919050565b5f808291508390505b60018511156200076f57808604811115620007475762000746620006e5565b5b6001851615620007575780820291505b8081029050620007678562000712565b945062000727565b94509492505050565b5f826200078957600190506200085b565b8162000798575f90506200085b565b8160018114620007b15760028114620007bc57620007f2565b60019150506200085b565b60ff841115620007d157620007d0620006e5565b5b8360020a915084821115620007eb57620007ea620006e5565b5b506200085b565b5060208310610133831016604e8410600b84101617156200082c5782820a905083811115620008265762000825620006e5565b5b6200085b565b6200083b84848460016200071e565b92509050818404811115620008555762000854620006e5565b5b81810290505b9392505050565b5f60ff82169050919050565b5f6200087a82620004b7565b9150620008878362000862565b9250620008b67fffffffffffffffffffffffffffffffffffffffffffffffffffffffffffffffff848462000778565b905092915050565b5f620008ca82620004b7565b9150620008d783620004b7565b9250828202620008e781620004b7565b91508282048414831517620009015762000900620006e5565b5b5092915050565b5f73ffffffffffffffffffffffffffffffffffffffff82169050919050565b5f620009338262000908565b9050919050565b620009458162000927565b82525050565b5f602082019050620009605f8301846200093a565b92915050565b5f6200097282620004b7565b91506200097f83620004b7565b92508282019050808211156200099a5762000999620006e5565b5b92915050565b620009ab81620004b7565b82525050565b5f606082019050620009c65f8301866200093a565b620009d56020830185620009a0565b620009e46040830184620009a0565b949350505050565b5f60208201905062000a015f830184620009a0565b92915050565b61138f8062000a155f395ff3fe608060405234801561000f575f80fd5b50600436106100cd575f3560e01c806370a082311161008a5780639ace38c2116100645780639ace38c214610215578063a9059cbb14610248578063d45e3f4a14610278578063dd62ed3e14610296576100cd565b806370a08231146101a957806395649bc9146101d957806395d89b41146101f7576100cd565b806306fdde03146100d1578063095ea7b3146100ef5780630ba70d091461011f57806318160ddd1461013d57806323b872dd1461015b578063313ce5671461018b575b5f80fd5b6100d96102c6565b6040516100e69190610ed2565b60405180910390f35b61010960048036038101906101049190610f83565b610356565b6040516101169190610fdb565b60405180910390f35b610127610378565b6040516101349190611003565b60405180910390f35b610145610418565b604051610152919061102b565b60405180910390f35b61017560048036038101906101709190611044565b610421565b6040516101829190610fdb565b60405180910390f35b610193610441565b6040516101a091906110af565b60405180910390f35b6101c360048036038101906101be91906110c8565b610449565b6040516101d0919061102b565b60405180910390f35b6101e161048e565b6040516101ee9190611003565b60405180910390f35b6101ff61052f565b60405161020c9190610ed2565b60405180910390f35b61022f600480360381019061022a91906110f3565b6105bf565b60405161023f949392919061111e565b60405180910390f35b610262600480360381019061025d9190610f83565b610638565b60405161026f9190610fdb565b60405180910390f35b610280610656565b60405161028d919061102b565b60405180910390f35b6102b060048036038101906102ab9190611161565b6106d8565b6040516102bd919061102b565b60405180910390f35b6060600380546102d5906111cc565b80601f0160208091040260200160405190810160405280929190818152602001828054610301906111cc565b801561034c5780601f106103235761010080835404028352916020019161034c565b820191905f5260205f20905b81548152906001019060200180831161032f57829003601f168201915b5050505050905090565b5f8061036061075a565b905061036d818585610761565b600191505092915050565b5f80600580549050116103c0576040517f08c379a00000000000000000000000000000000000000000000000000000000081526004016103b790611246565b60405180910390fd5b600560016005805490506103d49190611291565b815481106103e5576103e46112c4565b5b905f5260205f2090600402015f015f9054906101000a900473ffffffffffffffffffffffffffffffffffffffff16905090565b5f600254905090565b5f61042d848484610773565b61043884848461088d565b90509392505050565b5f6012905090565b5f805f8373ffffffffffffffffffffffffffffffffffffffff1673ffffffffffffffffffffffffffffffffffffffff1681526020019081526020015f20549050919050565b5f80600580549050116104d6576040517f08c379a00000000000000000000000000000000000000000000000000000000081526004016104cd90611246565b60405180910390fd5b600560016005805490506104ea9190611291565b815481106104fb576104fa6112c4565b5b905f5260205f2090600402016001015f9054906101000a900473ffffffffffffffffffffffffffffffffffffffff16905090565b60606004805461053e906111cc565b80601f016020809104026020016040519081016040528092919081815260200182805461056a906111cc565b80156105b55780601f1061058c576101008083540402835291602001916105b5565b820191905f5260205f20905b81548152906001019060200180831161059857829003601f168201915b5050505050905090565b600581815481106105ce575f80fd5b905f5260205f2090600402015f91509050805f015f9054906101000a900473ffffffffffffffffffffffffffffffffffffffff1690806001015f9054906101000a900473ffffffffffffffffffffffffffffffffffffffff16908060020154908060030154905084565b5f610644338484610773565b61064e83836108bb565b905092915050565b5f806005805490501161069e576040517f08c379a000000000000000000000000000000000000000000000000000000000815260040161069590611246565b60405180910390fd5b600560016005805490506106b29190611291565b815481106106c3576106c26112c4565b5b905f5260205f20906004020160030154905090565b5f60015f8473ffffffffffffffffffffffffffffffffffffffff1673ffffffffffffffffffffffffffffffffffffffff1681526020019081526020015f205f8373ffffffffffffffffffffffffffffffffffffffff1673ffffffffffffffffffffffffffffffffffffffff1681526020019081526020015f2054905092915050565b5f33905090565b61076e83838360016108dd565b505050565b600560405180608001604052808573ffffffffffffffffffffffffffffffffffffffff1681526020018473ffffffffffffffffffffffffffffffffffffffff16815260200183815260200142815250908060018154018082558091505060019003905f5260205f2090600402015f909190919091505f820151815f015f6101000a81548173ffffffffffffffffffffffffffffffffffffffff021916908373ffffffffffffffffffffffffffffffffffffffff1602179055506020820151816001015f6101000a81548173ffffffffffffffffffffffffffffffffffffffff021916908373ffffffffffffffffffffffffffffffffffffffff16021790555060408201518160020155606082015181600301555050505050565b5f8061089761075a565b90506108a4858285610aac565b6108af858585610b3f565b60019150509392505050565b5f806108c561075a565b90506108d2818585610b3f565b600191505092915050565b5f73ffffffffffffffffffffffffffffffffffffffff168473ffffffffffffffffffffffffffffffffffffffff160361094d575f6040517fe602df050000000000000000000000000000000000000000000000000000000081526004016109449190611003565b60405180910390fd5b5f73ffffffffffffffffffffffffffffffffffffffff168373ffffffffffffffffffffffffffffffffffffffff16036109bd575f6040517f94280d620000000000000000000000000000000000000000000000000000000081526004016109b49190611003565b60405180910390fd5b8160015f8673ffffffffffffffffffffffffffffffffffffffff1673ffffffffffffffffffffffffffffffffffffffff1681526020019081526020015f205f8573ffffffffffffffffffffffffffffffffffffffff1673ffffffffffffffffffffffffffffffffffffffff1681526020019081526020015f20819055508015610aa6578273ffffffffffffffffffffffffffffffffffffffff168473ffffffffffffffffffffffffffffffffffffffff167f8c5be1e5ebec7d5bd14f71427d1e84f3dd0314c0f7b2291e5b200ac8c7c3b92584604051610a9d919061102b565b60405180910390a35b50505050565b5f610ab784846106d8565b90507fffffffffffffffffffffffffffffffffffffffffffffffffffffffffffffffff811015610b395781811015610b2a578281836040517ffb8f41b2000000000000000000000000000000000000000000000000000000008152600401610b21939291906112f1565b60405180910390fd5b610b3884848484035f6108dd565b5b50505050565b5f73ffffffffffffffffffffffffffffffffffffffff168373ffffffffffffffffffffffffffffffffffffffff1603610baf575f6040517f96c6fd1e000000000000000000000000000000000000000000000000000000008152600401610ba69190611003565b60405180910390fd5b5f73ffffffffffffffffffffffffffffffffffffffff168273ffffffffffffffffffffffffffffffffffffffff1603610c1f575f6040517fec442f05000000000000000000000000000000000000000000000000000000008152600401610c169190611003565b60405180910390fd5b610c2a838383610c2f565b505050565b5f73ffffffffffffffffffffffffffffffffffffffff168373ffffffffffffffffffffffffffffffffffffffff1603610c7f578060025f828254610c739190611326565b92505081905550610d4d565b5f805f8573ffffffffffffffffffffffffffffffffffffffff1673ffffffffffffffffffffffffffffffffffffffff1681526020019081526020015f2054905081811015610d08578381836040517fe450d38c000000000000000000000000000000000000000000000000000000008152600401610cff939291906112f1565b60405180910390fd5b8181035f808673ffffffffffffffffffffffffffffffffffffffff1673ffffffffffffffffffffffffffffffffffffffff1681526020019081526020015f2081905550505b5f73ffffffffffffffffffffffffffffffffffffffff168273ffffffffffffffffffffffffffffffffffffffff1603610d94578060025f8282540392505081905550610dde565b805f808473ffffffffffffffffffffffffffffffffffffffff1673ffffffffffffffffffffffffffffffffffffffff1681526020019081526020015f205f82825401925050819055505b8173ffffffffffffffffffffffffffffffffffffffff168373ffffffffffffffffffffffffffffffffffffffff167fddf252ad1be2c89b69c2b068fc378daa952ba7f163c4a11628f55a4df523b3ef83604051610e3b919061102b565b60405180910390a3505050565b5f81519050919050565b5f82825260208201905092915050565b5f5b83811015610e7f578082015181840152602081019050610e64565b5f8484015250505050565b5f601f19601f8301169050919050565b5f610ea482610e48565b610eae8185610e52565b9350610ebe818560208601610e62565b610ec781610e8a565b840191505092915050565b5f6020820190508181035f830152610eea8184610e9a565b905092915050565b5f80fd5b5f73ffffffffffffffffffffffffffffffffffffffff82169050919050565b5f610f1f82610ef6565b9050919050565b610f2f81610f15565b8114610f39575f80fd5b50565b5f81359050610f4a81610f26565b92915050565b5f819050919050565b610f6281610f50565b8114610f6c575f80fd5b50565b5f81359050610f7d81610f59565b92915050565b5f8060408385031215610f9957610f98610ef2565b5b5f610fa685828601610f3c565b9250506020610fb785828601610f6f565b9150509250929050565b5f8115159050919050565b610fd581610fc1565b82525050565b5f602082019050610fee5f830184610fcc565b92915050565b610ffd81610f15565b82525050565b5f6020820190506110165f830184610ff4565b92915050565b61102581610f50565b82525050565b5f60208201905061103e5f83018461101c565b92915050565b5f805f6060848603121561105b5761105a610ef2565b5b5f61106886828701610f3c565b935050602061107986828701610f3c565b925050604061108a86828701610f6f565b9150509250925092565b5f60ff82169050919050565b6110a981611094565b82525050565b5f6020820190506110c25f8301846110a0565b92915050565b5f602082840312156110dd576110dc610ef2565b5b5f6110ea84828501610f3c565b91505092915050565b5f6020828403121561110857611107610ef2565b5b5f61111584828501610f6f565b91505092915050565b5f6080820190506111315f830187610ff4565b61113e6020830186610ff4565b61114b604083018561101c565b611158606083018461101c565b95945050505050565b5f806040838503121561117757611176610ef2565b5b5f61118485828601610f3c565b925050602061119585828601610f3c565b9150509250929050565b7f4e487b71000000000000000000000000000000000000000000000000000000005f52602260045260245ffd5b5f60028204905060018216806111e357607f821691505b6020821081036111f6576111f561119f565b5b50919050565b7f4e6f207472616e73616374696f6e73207965742e0000000000000000000000005f82015250565b5f611230601483610e52565b915061123b826111fc565b602082019050919050565b5f6020820190508181035f83015261125d81611224565b9050919050565b7f4e487b71000000000000000000000000000000000000000000000000000000005f52601160045260245ffd5b5f61129b82610f50565b91506112a683610f50565b92508282039050818111156112be576112bd611264565b5b92915050565b7f4e487b71000000000000000000000000000000000000000000000000000000005f52603260045260245ffd5b5f6060820190506113045f830186610ff4565b611311602083018561101c565b61131e604083018461101c565b949350505050565b5f61133082610f50565b915061133b83610f50565b925082820190508082111561135357611352611264565b5b9291505056fea2646970667358221220179c786988bd0f678a00400a2573815138613012d5beef5a04cbba09d8c43e0c64736f6c63430008140033",
  "immutableReferences": {},
  "source": "// SPDX-License-Identifier: MIT\npragma solidity ^0.8.0;\n\nimport \"@openzeppelin/contracts/token/ERC20/ERC20.sol\";\n\ncontract AITUToken is ERC20 {\n    // Struct to store transaction details\n    struct TransactionInfo {\n        address sender;\n        address receiver;\n        uint256 amount;\n        uint256 timestamp;\n    }\n\n    TransactionInfo[] public transactions;\n\n    constructor() ERC20(\"AITUToken_SE2329\", \"AITU\") {\n        // Mint initial supply of 2000 tokens (scaled by 18 decimals)\n        _mint(msg.sender, 2000 * 10 ** decimals());\n    }\n\n    // Overridden transfer function to track transactions\n    function transfer(address to, uint256 amount) public override returns (bool) {\n        _logTransaction(msg.sender, to, amount);\n        return super.transfer(to, amount);\n    }\n\n    // Overridden transferFrom function to track transactions\n    function transferFrom(\n        address from,\n        address to,\n        uint256 amount\n    ) public override returns (bool) {\n        _logTransaction(from, to, amount);\n        return super.transferFrom(from, to, amount);\n    }\n\n    // Internal function to log transactions\n    function _logTransaction(address from, address to, uint256 amount) internal {\n        transactions.push(\n            TransactionInfo({\n                sender: from,\n                receiver: to,\n                amount: amount,\n                timestamp: block.timestamp\n            })\n        );\n    }\n\n    // Function to return the latest transaction's block timestamp in a readable format\n    function getLatestTransactionTimestamp() public view returns (uint256) {\n        require(transactions.length > 0, \"No transactions yet.\");\n        return transactions[transactions.length - 1].timestamp;\n    }\n\n    // Function to retrieve sender of the latest transaction\n    function getLatestTransactionSender() public view returns (address) {\n        require(transactions.length > 0, \"No transactions yet.\");\n        return transactions[transactions.length - 1].sender;\n    }\n\n    // Function to retrieve receiver of the latest transaction\n    function getLatestTransactionReceiver() public view returns (address) {\n        require(transactions.length > 0, \"No transactions yet.\");\n        return transactions[transactions.length - 1].receiver;\n    }\n}\n",
  "sourcePath": "/Users/arashi/AITUTokenProject/contracts/AITUToken.sol",
  "compiler": {
    "name": "solc",
    "version": "0.8.20+commit.a1b79de6.Emscripten.clang"
  },
  "schemaVersion": "3.4.16",
  "updatedAt": "2025-01-18T10:00:15.221Z",
  "devdoc": {
    "errors": {
      "ERC20InsufficientAllowance(address,uint256,uint256)": [
        {
          "details": "Indicates a failure with the `spender`s `allowance`. Used in transfers.",
          "params": {
            "allowance": "Amount of tokens a `spender` is allowed to operate with.",
            "needed": "Minimum amount required to perform a transfer.",
            "spender": "Address that may be allowed to operate on tokens without being their owner."
          }
        }
      ],
      "ERC20InsufficientBalance(address,uint256,uint256)": [
        {
          "details": "Indicates an error related to the current `balance` of a `sender`. Used in transfers.",
          "params": {
            "balance": "Current balance for the interacting account.",
            "needed": "Minimum amount required to perform a transfer.",
            "sender": "Address whose tokens are being transferred."
          }
        }
      ],
      "ERC20InvalidApprover(address)": [
        {
          "details": "Indicates a failure with the `approver` of a token to be approved. Used in approvals.",
          "params": {
            "approver": "Address initiating an approval operation."
          }
        }
      ],
      "ERC20InvalidReceiver(address)": [
        {
          "details": "Indicates a failure with the token `receiver`. Used in transfers.",
          "params": {
            "receiver": "Address to which tokens are being transferred."
          }
        }
      ],
      "ERC20InvalidSender(address)": [
        {
          "details": "Indicates a failure with the token `sender`. Used in transfers.",
          "params": {
            "sender": "Address whose tokens are being transferred."
          }
        }
      ],
      "ERC20InvalidSpender(address)": [
        {
          "details": "Indicates a failure with the `spender` to be approved. Used in approvals.",
          "params": {
            "spender": "Address that may be allowed to operate on tokens without being their owner."
          }
        }
      ]
    },
    "events": {
      "Approval(address,address,uint256)": {
        "details": "Emitted when the allowance of a `spender` for an `owner` is set by a call to {approve}. `value` is the new allowance."
      },
      "Transfer(address,address,uint256)": {
        "details": "Emitted when `value` tokens are moved from one account (`from`) to another (`to`). Note that `value` may be zero."
      }
    },
    "kind": "dev",
    "methods": {
      "allowance(address,address)": {
        "details": "See {IERC20-allowance}."
      },
      "approve(address,uint256)": {
        "details": "See {IERC20-approve}. NOTE: If `value` is the maximum `uint256`, the allowance is not updated on `transferFrom`. This is semantically equivalent to an infinite approval. Requirements: - `spender` cannot be the zero address."
      },
      "balanceOf(address)": {
        "details": "See {IERC20-balanceOf}."
      },
      "decimals()": {
        "details": "Returns the number of decimals used to get its user representation. For example, if `decimals` equals `2`, a balance of `505` tokens should be displayed to a user as `5.05` (`505 / 10 ** 2`). Tokens usually opt for a value of 18, imitating the relationship between Ether and Wei. This is the default value returned by this function, unless it's overridden. NOTE: This information is only used for _display_ purposes: it in no way affects any of the arithmetic of the contract, including {IERC20-balanceOf} and {IERC20-transfer}."
      },
      "name()": {
        "details": "Returns the name of the token."
      },
      "symbol()": {
        "details": "Returns the symbol of the token, usually a shorter version of the name."
      },
      "totalSupply()": {
        "details": "See {IERC20-totalSupply}."
      }
    },
    "version": 1
  },
  "userdoc": {
    "kind": "user",
    "methods": {},
    "version": 1
  }
}